:080000000C9486000C94000032
:100008000C9400000C9400000C9400000C94000068
:100018000C9400000C9400000C9400000C94000058
:100028000C9400000C9400000C9400000C94B30095
:100038000C9400000C9400000C9400000C94000038
:100048000C9400000C9400000C9400001027E803A6
:1000580064000A0001000010000110000100000007
:1000680000000000000000000000524543206672B6
:100078006F6D200053656E64696E6720546F2000B1
:10008800646573743A0049742773206D65006D6167
:100098007820616464726573732069732033002566
:1000A8006425644D53473A2573650053454E4449CA
:1000B8004E4720546F20000080C001002D4E414E55
:1000C80000494E4600000100020066000A000400D4
:1000D80068000A00600272000C006A027C000600D8
:1000E8007602880008007C028E00110084029600C7
:1000F8000C009502B3000200BD02C0000100C4025A
:10010800C2000000F894EE27ECBBF1E0FBBFEBBFA8
:10011800E5BF8DE0A2E0BB27ED938A95E9F780E083
:1001280098E0A0E6ED930197E9F7EEECF0E0859111
:100138009591009761F0A591B59105901590BF0133
:10014800F00105900D920197E1F7FB01F0CFEFE583
:10015800EDBFE8E0EEBFC0E6D2E00C9448010A9299
:100168001A92FA926A937A938A939A93AA93BA9371
:10017800EA93FA93EFB7EA930E94A8041BB10CB173
:10018800E12FEC7189F4E42D4394F0E0EB54FD4F3A
:100198000083E8E0E41509F44424C394E8E0EC158E
:1001A80019F4CC24689420F8062C0728F9F459D0BF
:1001B800F0E0F0979F01F30131963F01A216B306D4
:1001C80039F4A0E6B2E00E947A020E943D040EC013
:1001D800A22FA05D0E94B7020E944C02AAE6B2E0DC
:1001E8000E947A02A22FA05D0E945A02F301EF55E5
:1001F800FD4FFF93EF9335D0AF91BF91EC930E94E1
:100208004204A53671F466247724E0E0EA93A0E07E
:100218000E943B02A216B30619F0A5E60E94B70297
:100228000FC0A216B30629F40E9442040E945A0283
:1002380004C00E9442040E94B702F30131963F01B4
:100248000E94AF042496E991EFBFF991E991B99121
:10025800A9919991899179916991F9901990099049
:1002680018951A93CC20F1F3ED2DD394F0E0EB54CC
:10027800FD4F1081E8E0ED1509F4DD24F894CA94E7
:100288007894E12F19910895E0E0EABBEBBBE3E035
:10029800E7BBE0E0E8BBE8E7E4BBE0E0E5BBE1BBE7
:1002A800E2BBEBB9E8E9EAB9E6E8E0BDE0E0E0BDC9
:1002B800ECE0E9B9A0E12AD17894E0E0B099E1E076
:1002C8006E2FA0E0B199A1E0E2E0EA9FF001E60F0D
:1002D800AE2EBB24552469D0E3E2E51599F05520EC
:1002E80071F0E091A102E03009F4D2D0A52DDED062
:1002F800F301EF55FD4F5082F30131963F010E9403
:100308004804E8CF0E943D04A6E7B2E0EFD05524A8
:100318000E944804552011F448D0FCCFE52DF0E0A8
:10032800F0974F01A814B90439F4B2D0ACE7B2E0A1
:10033800DDD00E94480432C0E3E0F0E0E815F9059A
:1003480038F4A6D0A4E8B2E0D1D00E94480426C070
:10035800A52DACD00E944804E7EAF0E0FA93EA93AE
:10036800F4010E944C04F5010E944C04E1EAF2E019
:100378000E944C048CE00E94FF032E9689D0A5E9C8
:10038800B2E0B4D0A82DA05D91D0A4E1B0E00E9465
:1003980087040E943D04A1EAB2E0A8D0E0E0E0931F
:1003A800A1026624772496CFFFCFAB980E94510410
:1003B800989902C0E1E307C0999902C0E2E303C03B
:1003C8009A9902C0E3E35E2EAB9AAC980E9451045E
:1003D800989902C0E4E307C0999902C0E5E303C015
:1003E8009A9902C0E6E35E2EAC9AAD980E94510439
:1003F800989902C0E7E307C0999902C0E8E303C0EF
:100408009A9902C0E9E35E2EAD9AAE980E94510413
:10041800989902C0EAE207C0999902C0E0E303C0D4
:100428009A9902C0E3E25E2EAE9A0895AA93EBB3BE
:10043800EF70AE2FE881E07FEA2BEBBB82E08A9574
:10044800F1F7DA9A82E08A95F1F7DA9882E08A95EC
:10045800F1F70C94BC02AA93A881E8DFE881E29541
:10046800E883A881E3DF81E18A95F1F781C0AA9347
:10047800E881F0E0E354FD4FE081A981AE0FEBDFA6
:10048800E981E093C102E881E093C20222960895CF
:10049800A2E00E945504ACE0DEDFA1E00E94550412
:1004A800E0E0E093C202E093C1020895AA93A88114
:1004B800AA3031F0E091C302A091C102AE1760F0FA
:1004C800E0E0EA93A091C202AF5FA093C202CFDF3F
:1004D800A881AA3009F44CC0E091C102EF5FE09313
:1004E800C102D89AA881B7DFD89842C0BA93AA9314
:1004F8001A93A981BA81ED91A983BA831E2FE0309E
:1005080019F0A12FD3DFF5CF18813FC0AA93EAB322
:10051800E06FEABBD29AD09AD19ADA98D898D9984B
:10052800E881E093C302E058E093BF02E881E05419
:10053800E093C002A4E1B0E00E9487040E945B043B
:100548000E945B040E945B04A0E270DF81E28A954E
:10055800F1F7A8E280DFA4E07EDFA5E87CDFA6E073
:100568007ADF96DF05C0AA935D9BFECFE881ECB9E0
:1005780021960895BA93AA93AA81F5DFA881B98133
:10058800ED91FD913196FE93EE9323960895BA93DB
:10059800AA9326970E94A60410E0AC85BD85E0E0EA
:1005A800F0E0ED93FC93EA89FB893196EA8BFB8BAB
:1005B8003197E4912E2FE03009F415C1E12FE03096
:1005C80039F4253211F411E002C00E9462040AC114
:1005D800E130A9F4253219F40E94620402C112E044
:1005E80040E000E02D3211F401E0FCC02B3211F4A0
:1005F8004BE2F8C0203211F440E2F4C002C0E2300D
:1006080039F450E013E0203311F40068EBC003C064
:10061800E33009F0E7C0203310F02A3308F007C0B0
:10062800AAE05A9F502DE22FE0535E0FDBC0E22F65
:10063800E33649F40E946904E889F989A481AA93F8
:100648000E946F04CEC0E33741F40E9469040E94FF
:1006580075040E9424041E2F0AC0E03761F40E942A
:1006680069040E9475040E9430041E2F086002600D
:100678000F7730E034C0E43611F0E93611F4046045
:1006880002C0E53731F4E4E5F0E0EE83FF8315E0DE
:100698000CC0E83511F4086003C0E83709F0A1C0C0
:1006A800EEE5F0E0EE83FF8314E002FF14C00E9441
:1006B80069040E947F04AB85AA233AF4EA85FB8586
:1006C8000E949504EA87FB874DE2403011F01F5FD6
:1006D80001C00B7F04C00E9469040E947F0400FDD2
:1006E80011C0151778F407FF08C002FF04C00B7F7C
:1006F800242F115001C020E301C020E20E946204AF
:100708005150EFCF312F01FF17C03030A1F003FF58
:1007180006C0EE81FF812591EE83FF8305C0AE817F
:10072800BF812D91AE83BF830E946204503009F0CF
:1007380051503150EACF4BC020E3EE81FF810E9437
:100748009D04E887F987EE81FF813296EE83FF8367
:10075800E885F985AA85BB85AE17BF0750F02F5FDE
:10076800A885B985EA85FB85EA1BFB0BEA87FB8729
:10077800EFCF2A3328F003FF02C0295F01C0295DAB
:1007880004FD1AC0213320F4A885B985119709F40E
:1007980009C0531710F000FF01C013C020E207FF83
:1007A8000BC020E3006102FF07C00B7F4A930E9441
:1007B8006F04503009F051500E946204503009F023
:1007C80051503150A885B985129708F0B5CF00FF70
:1007D80008C0503031F05150E0E2EA930E946F04B3
:1007E800F8CF10E0E0CEAC85BD850E9499040E9448
:1007F800AD0464960895FF92F82E26971A930A93EB
:10080800DE0114960E9491048D01E0E0EC83ED83F3
:10081800EE83EF83DE0118960E9491040E949904EA
:10082800FA93EA931A930A93EEEBF2E0FA93EA93B7
:10083800DE011896ACDE198108812896FF9008958C
:10084800BA93AA93A991B991EE27FF276D916623D0
:1008580011F03196FBCF0895BA93AA93AA27BB2724
:10086800E991F9910590002011F01196FBCFFD0157
:100878000895E0E0EA93A1E00C943B02A1EAB2E01B
:10088800A60DB71DAC910895A8ECB0E00C948704B0
:10089800662777270E94A1040895A2E0B0E00C948F
:1008A80087040E942F02A3E0B0E00C948704A0E321
:1008B8000E941A0281E28A95F1F708952A93AD857C
:1008C800BE85EF85F88909950895E889F9893497EF
:1008D800E88BF98B0895AD85BE85EF85F889099574
:1008E8000895A889B98914960E949904EE83FF8314
:1008F800AE81BF810895A889B98914960E94990488
:10090800EA87FB870895109639F08AEF90E00197FF
:10091800F1F7A8951197C9F708950024AF0DB01DF8
:100928000895F195E195F0400895ED91FC911197A6
:1009380008950590F491E02D08957A936A93FA93B7
:10094800EA9308955A934A933A932A931A930A93E7
:1009580008955D814C813B812A8119810881089520
:00000001FF
